:100000000AC00FC00EC00DC00CC00BC00AC009C092
:1000100008C007C006C011241FBECFEDCDBF8CD0D5
:10002000ADC0EECFDF93CF93CDB7DEB72A970FB633
:10003000F894DEBF0FBECDBF6F83788789879A871C
:100040001B821C821D821E820DC01A8219828B8126
:100050009C81AD81BE810196A11DB11D8B839C83C6
:10006000AD83BE832B813C814D815E818F819885DC
:10007000A985BA85281739074A075B0734F32A96FA
:100080000FB6F894DEBF0FBECDBFCF91DF910895BC
:10009000DF93CF9300D00F92CDB7DEB78A836B8307
:1000A000E2E3F0E0808189838A81282F30E081E0DB
:1000B00090E002C0880F991F2A95E2F7982F90953B
:1000C0008981892389838B81282F30E08A81882F39
:1000D00090E0422F532F02C0440F551F8A95E2F73C
:1000E000842F952F982F8981892B8983E2E3F0E073
:1000F000898180830F900F900F90CF91DF910895A9
:10010000DF93CF930F92CDB7DEB78983E0E3F0E0C2
:100110008081282F30E08981882F90E0422F532F53
:1001200002C0559547958A95E2F7842F952F8170E7
:100130000F90CF91DF910895DF93CF9300D0CDB78B
:10014000DEB7E1E3F0E08FEC80831A82198285E06C
:1001500061E09EDF64E670E080E090E063DF85E0D0
:1001600060E096DF85E0CCDF982F86E0692F90DF96
:1001700064E670E080E090E055DFE9CFF894FFCFCF
:00000001FF
